{
  "contractName": "Booking",
  "abi": [
    {
      "constant": true,
      "inputs": [
        {
          "name": "",
          "type": "uint256"
        }
      ],
      "name": "booknos",
      "outputs": [
        {
          "name": "",
          "type": "uint256"
        }
      ],
      "payable": false,
      "stateMutability": "view",
      "type": "function"
    },
    {
      "constant": true,
      "inputs": [
        {
          "name": "",
          "type": "uint256"
        }
      ],
      "name": "bookers",
      "outputs": [
        {
          "name": "",
          "type": "address"
        }
      ],
      "payable": false,
      "stateMutability": "view",
      "type": "function"
    },
    {
      "constant": false,
      "inputs": [
        {
          "name": "bookId",
          "type": "uint256"
        },
        {
          "name": "blno",
          "type": "uint256"
        }
      ],
      "name": "booked",
      "outputs": [
        {
          "name": "",
          "type": "uint256"
        }
      ],
      "payable": false,
      "stateMutability": "nonpayable",
      "type": "function"
    },
    {
      "constant": true,
      "inputs": [],
      "name": "getBookers",
      "outputs": [
        {
          "name": "",
          "type": "address[16]"
        }
      ],
      "payable": false,
      "stateMutability": "view",
      "type": "function"
    },
    {
      "constant": false,
      "inputs": [
        {
          "name": "bookId",
          "type": "uint256"
        },
        {
          "name": "blno",
          "type": "uint256"
        }
      ],
      "name": "setBookno",
      "outputs": [
        {
          "name": "",
          "type": "uint256"
        }
      ],
      "payable": false,
      "stateMutability": "nonpayable",
      "type": "function"
    },
    {
      "constant": true,
      "inputs": [
        {
          "name": "bookId",
          "type": "uint256"
        }
      ],
      "name": "getBookno",
      "outputs": [
        {
          "name": "",
          "type": "uint256"
        }
      ],
      "payable": false,
      "stateMutability": "view",
      "type": "function"
    }
  ],
  "bytecode": "0x608060405234801561001057600080fd5b5061043a806100206000396000f300608060405260043610610078576000357c0100000000000000000000000000000000000000000000000000000000900463ffffffff168063144f9b0b1461007d57806318555dda146100be57806360538b33146100ff5780638000f84f14610152578063944864171461019d578063f7b0f74b146101e8575b600080fd5b34801561008957600080fd5b506100a860048036038101908080359060200190929190505050610255565b6040518082815260200191505060405180910390f35b3480156100ca57600080fd5b506100e96004803603810190808035906020019092919050505061026f565b6040518082815260200191505060405180910390f35b34801561010b57600080fd5b50610114610289565b6040518082601060200280838360005b8381101561013f578082015181840152602081019050610124565b5050505090500191505060405180910390f35b34801561015e57600080fd5b50610187600480360381019080803590602001909291908035906020019092919050505061030a565b6040518082815260200191505060405180910390f35b3480156101a957600080fd5b506101d2600480360381019080803590602001909291908035906020019092919050505061032a565b6040518082815260200191505060405180910390f35b3480156101f457600080fd5b50610213600480360381019080803590602001909291905050506103b5565b604051808273ffffffffffffffffffffffffffffffffffffffff1673ffffffffffffffffffffffffffffffffffffffff16815260200191505060405180910390f35b600060108260108110151561026657fe5b01549050919050565b60108160108110151561027e57fe5b016000915090505481565b6102916103ea565b6000601080602002604051908101604052809291908260108015610300576020028201915b8160009054906101000a900473ffffffffffffffffffffffffffffffffffffffff1673ffffffffffffffffffffffffffffffffffffffff16815260200190600101908083116102b6575b5050505050905090565b60008160108460108110151561031c57fe5b018190555082905092915050565b600080831015801561033d5750600f8311155b151561034857600080fd5b3360008460108110151561035857fe5b0160006101000a81548173ffffffffffffffffffffffffffffffffffffffff021916908373ffffffffffffffffffffffffffffffffffffffff160217905550816010846010811015156103a757fe5b018190555082905092915050565b6000816010811015156103c457fe5b016000915054906101000a900473ffffffffffffffffffffffffffffffffffffffff1681565b610200604051908101604052806010906020820280388339808201915050905050905600a165627a7a72305820773e93bbef4565f09d0687d5de28116491f2f93d05030b03f79b3f4512dcdd4a0029",
  "source": "pragma solidity ^0.4.17;\r\n\r\ncontract Booking {\r\n  address[16] public bookers; \r\n  //string [] booknos = ['a','b','c','d'];\r\n  uint[16] public booknos;\r\n    // \r\n  function booked(uint bookId,uint blno) public returns (uint) {\r\n    require(bookId >= 0 && bookId <= 15);  // 确保id在数组长度内\r\n    bookers[bookId] = msg.sender;        // 保存调用这地址 \r\n    booknos[bookId] = blno;            // 对bookno赋值\r\n\r\n    return bookId; \r\n  }\r\n  // \r\n  function getBookers() public view returns (address[16]) {\r\n    return bookers;\r\n  }\r\n\r\n  function setBookno(uint bookId,uint blno) public returns(uint){\r\n      booknos[bookId]=blno;\r\n      return bookId;\r\n  }\r\n\r\n  function getBookno(uint bookId) public view returns(uint){\r\n      return  booknos[bookId];\r\n  }\r\n}",
  "sourcePath": "E:\\testeth\\ebkg\\contracts\\Booking.sol",
  "compiler": {
    "name": "solc",
    "version": "0.4.24+commit.e67f0147.Emscripten.clang"
  },
  "schemaVersion": "2.0.0",
  "updatedAt": "2018-06-27T12:24:43.539Z"
}